{"contracts/HCULimits.sol":{"HCULimits":{"abi":[{"inputs":[],"name":"DECRYPTION_BASE_COST","outputs":[{"internalType":"uint256","name":"","type":"uint256"}],"stateMutability":"view","type":"function"},{"inputs":[],"name":"DECRYPTION_PER_VALUE","outputs":[{"internalType":"uint256","name":"","type":"uint256"}],"stateMutability":"view","type":"function"},{"inputs":[],"name":"EUINT32_ADD_NON_SCALAR","outputs":[{"internalType":"uint256","name":"","type":"uint256"}],"stateMutability":"view","type":"function"},{"inputs":[],"name":"EUINT32_DIV_NON_SCALAR","outputs":[{"internalType":"uint256","name":"","type":"uint256"}],"stateMutability":"view","type":"function"},{"inputs":[],"name":"EUINT32_MUL_NON_SCALAR","outputs":[{"internalType":"uint256","name":"","type":"uint256"}],"stateMutability":"view","type":"function"},{"inputs":[],"name":"EUINT32_SUB_NON_SCALAR","outputs":[{"internalType":"uint256","name":"","type":"uint256"}],"stateMutability":"view","type":"function"},{"inputs":[],"name":"MAX_GLOBAL_HCU","outputs":[{"internalType":"uint256","name":"","type":"uint256"}],"stateMutability":"view","type":"function"},{"inputs":[],"name":"MAX_SEQUENTIAL_HCU","outputs":[{"internalType":"uint256","name":"","type":"uint256"}],"stateMutability":"view","type":"function"}],"evm":{"bytecode":{"linkReferences":{},"object":"61011b610039600b82828239805160001a607314602c57634e487b7160e01b600052600060045260246000fd5b30600052607381538281f3fe730000000000000000000000000000000000000000301460806040526004361060885760003560e01c8063af0794d311605f578063af0794d31460c3578063b0df211d1460cc578063c79638e91460d4578063cb118e501460dc57600080fd5b8063288cedfb14608d5780632cfe6e181460a857806378a497851460b15780639f43a8041460ba575b600080fd5b60966207a12081565b60405190815260200160405180910390f35b60966201d8a881565b6096620f424081565b60966201d4c081565b6096620249f081565b609661271081565b609661c35081565b60966202bf208156fea2646970667358221220cca8dc50b552243e3897493285db3d0bad23a8bf2c6695ec2516c5936f61791d64736f6c634300081c0033","opcodes":"PUSH2 0x11B PUSH2 0x39 PUSH1 0xB DUP3 DUP3 DUP3 CODECOPY DUP1 MLOAD PUSH1 0x0 BYTE PUSH1 0x73 EQ PUSH1 0x2C JUMPI PUSH4 0x4E487B71 PUSH1 0xE0 SHL PUSH1 0x0 MSTORE PUSH1 0x0 PUSH1 0x4 MSTORE PUSH1 0x24 PUSH1 0x0 REVERT JUMPDEST ADDRESS PUSH1 0x0 MSTORE PUSH1 0x73 DUP2 MSTORE8 DUP3 DUP2 RETURN INVALID PUSH20 0x0 ADDRESS EQ PUSH1 0x80 PUSH1 0x40 MSTORE PUSH1 0x4 CALLDATASIZE LT PUSH1 0x88 JUMPI PUSH1 0x0 CALLDATALOAD PUSH1 0xE0 SHR DUP1 PUSH4 0xAF0794D3 GT PUSH1 0x5F JUMPI DUP1 PUSH4 0xAF0794D3 EQ PUSH1 0xC3 JUMPI DUP1 PUSH4 0xB0DF211D EQ PUSH1 0xCC JUMPI DUP1 PUSH4 0xC79638E9 EQ PUSH1 0xD4 JUMPI DUP1 PUSH4 0xCB118E50 EQ PUSH1 0xDC JUMPI PUSH1 0x0 DUP1 REVERT JUMPDEST DUP1 PUSH4 0x288CEDFB EQ PUSH1 0x8D JUMPI DUP1 PUSH4 0x2CFE6E18 EQ PUSH1 0xA8 JUMPI DUP1 PUSH4 0x78A49785 EQ PUSH1 0xB1 JUMPI DUP1 PUSH4 0x9F43A804 EQ PUSH1 0xBA JUMPI JUMPDEST PUSH1 0x0 DUP1 REVERT JUMPDEST PUSH1 0x96 PUSH3 0x7A120 DUP2 JUMP JUMPDEST PUSH1 0x40 MLOAD SWAP1 DUP2 MSTORE PUSH1 0x20 ADD PUSH1 0x40 MLOAD DUP1 SWAP2 SUB SWAP1 RETURN JUMPDEST PUSH1 0x96 PUSH3 0x1D8A8 DUP2 JUMP JUMPDEST PUSH1 0x96 PUSH3 0xF4240 DUP2 JUMP JUMPDEST PUSH1 0x96 PUSH3 0x1D4C0 DUP2 JUMP JUMPDEST PUSH1 0x96 PUSH3 0x249F0 DUP2 JUMP JUMPDEST PUSH1 0x96 PUSH2 0x2710 DUP2 JUMP JUMPDEST PUSH1 0x96 PUSH2 0xC350 DUP2 JUMP JUMPDEST PUSH1 0x96 PUSH3 0x2BF20 DUP2 JUMP INVALID LOG2 PUSH5 0x6970667358 0x22 SLT KECCAK256 0xCC 0xA8 0xDC POP 0xB5 MSTORE 0x24 RETURNDATACOPY CODESIZE SWAP8 BLOBHASH ORIGIN DUP6 0xDB RETURNDATASIZE SIGNEXTEND 0xAD 0x23 0xA8 0xBF 0x2C PUSH7 0x95EC2516C5936F PUSH2 0x791D PUSH5 0x736F6C6343 STOP ADDMOD SHR STOP CALLER "},"methodIdentifiers":{"DECRYPTION_BASE_COST()":"c79638e9","DECRYPTION_PER_VALUE()":"b0df211d","EUINT32_ADD_NON_SCALAR()":"2cfe6e18","EUINT32_DIV_NON_SCALAR()":"cb118e50","EUINT32_MUL_NON_SCALAR()":"af0794d3","EUINT32_SUB_NON_SCALAR()":"9f43a804","MAX_GLOBAL_HCU()":"78a49785","MAX_SEQUENTIAL_HCU()":"288cedfb"}}}}}