{
  "_format": "hh-sol-artifact-1",
  "contractName": "SimpleFHECounter",
  "sourceName": "contracts/SimpleFHECounter.sol",
  "abi": [
    {
      "inputs": [],
      "stateMutability": "nonpayable",
      "type": "constructor"
    },
    {
      "anonymous": false,
      "inputs": [
        {
          "indexed": false,
          "internalType": "uint256",
          "name": "newCount",
          "type": "uint256"
        }
      ],
      "name": "CounterDecremented",
      "type": "event"
    },
    {
      "anonymous": false,
      "inputs": [
        {
          "indexed": false,
          "internalType": "uint256",
          "name": "newCount",
          "type": "uint256"
        }
      ],
      "name": "CounterIncremented",
      "type": "event"
    },
    {
      "anonymous": false,
      "inputs": [
        {
          "indexed": false,
          "internalType": "uint256",
          "name": "count",
          "type": "uint256"
        }
      ],
      "name": "CounterReset",
      "type": "event"
    },
    {
      "inputs": [
        {
          "internalType": "uint256",
          "name": "value",
          "type": "uint256"
        }
      ],
      "name": "decrement",
      "outputs": [],
      "stateMutability": "nonpayable",
      "type": "function"
    },
    {
      "inputs": [],
      "name": "getCount",
      "outputs": [
        {
          "internalType": "uint256",
          "name": "",
          "type": "uint256"
        }
      ],
      "stateMutability": "view",
      "type": "function"
    },
    {
      "inputs": [],
      "name": "getInfo",
      "outputs": [
        {
          "internalType": "uint256",
          "name": "currentCount",
          "type": "uint256"
        },
        {
          "internalType": "address",
          "name": "contractOwner",
          "type": "address"
        },
        {
          "internalType": "uint256",
          "name": "blockNumber",
          "type": "uint256"
        },
        {
          "internalType": "uint256",
          "name": "timestamp",
          "type": "uint256"
        }
      ],
      "stateMutability": "view",
      "type": "function"
    },
    {
      "inputs": [
        {
          "internalType": "uint256",
          "name": "value",
          "type": "uint256"
        }
      ],
      "name": "increment",
      "outputs": [],
      "stateMutability": "nonpayable",
      "type": "function"
    },
    {
      "inputs": [],
      "name": "owner",
      "outputs": [
        {
          "internalType": "address",
          "name": "",
          "type": "address"
        }
      ],
      "stateMutability": "view",
      "type": "function"
    },
    {
      "inputs": [],
      "name": "reset",
      "outputs": [],
      "stateMutability": "nonpayable",
      "type": "function"
    },
    {
      "inputs": [
        {
          "internalType": "uint256",
          "name": "newCount",
          "type": "uint256"
        }
      ],
      "name": "setCount",
      "outputs": [],
      "stateMutability": "nonpayable",
      "type": "function"
    }
  ],
  "bytecode": "0x6080604052348015600f57600080fd5b50600180546001600160a01b031916331790556000805561038b806100356000396000f3fe608060405234801561001057600080fd5b506004361061007d5760003560e01c80638da5cb5b1161005b5780638da5cb5b146100df578063a87d942c1461010a578063d14e62b81461011b578063d826f88f1461012e57600080fd5b80633a9ebefd146100825780635a9b0b89146100975780637cf5dab0146100cc575b600080fd5b6100956100903660046102b9565b610136565b005b600054600154604080519283526001600160a01b03909116602083015243908201524260608201526080015b60405180910390f35b6100956100da3660046102b9565b6101dd565b6001546100f2906001600160a01b031681565b6040516001600160a01b0390911681526020016100c3565b6000546040519081526020016100c3565b6100956101293660046102b9565b610226565b610095610255565b80600054101561018d5760405162461bcd60e51b815260206004820152601b60248201527f43616e6e6f742064656372656d656e742062656c6f77207a65726f000000000060448201526064015b60405180910390fd5b8060008082825461019e91906102e8565b90915550506000546040519081527f1a00a27c962d5410357331e1a8cffff62058bd0161ad624818df31152f1eeb45906020015b60405180910390a150565b806000808282546101ee9190610301565b90915550506000546040519081527f3cf8b50771c17d723f2cb711ca7dadde485b222e13c84ba0730a14093fad6d5c906020016101d2565b6001546001600160a01b031633146102505760405162461bcd60e51b815260040161018490610314565b600055565b6001546001600160a01b0316331461027f5760405162461bcd60e51b815260040161018490610314565b60008080556040519081527f5ee614ee051809d12a47ecce5391d6753965c7559f89ccf50b59ab97cbd0d70f9060200160405180910390a1565b6000602082840312156102cb57600080fd5b5035919050565b634e487b7160e01b600052601160045260246000fd5b818103818111156102fb576102fb6102d2565b92915050565b808201808211156102fb576102fb6102d2565b60208082526021908201527f4f6e6c79206f776e65722063616e2063616c6c20746869732066756e6374696f6040820152603760f91b60608201526080019056fea2646970667358221220c5bfd91f06417cbe1217b4447ee1844d090441b3f1a42d0ce68c1ed38ef17e4c64736f6c634300081c0033",
  "linkReferences": {},
  "deployedLinkReferences": {}
}